:020000040800F2
:10000000B8070020A11F0008E1110008E311000853
:10001000E7110008EB110008EF11000800000000D4
:10002000000000000000000000000000F3110008C4
:10003000F511000800000000F7110008F911000890
:10004000BB1F0008BB1F0008BB1F0008BB1F000828
:10005000BB1F0008BB1F0008BB1F0008BB1F000818
:10006000BB1F0008BB1F0008BB1F0008BB1F000808
:10007000BB1F0008BB1F0008BB1F0008BB1F0008F8
:10008000BB1F0008BB1F0008BB1F0008BB1F0008E8
:10009000BB1F0008BB1F0008BB1F0008BB1F0008D8
:1000A000BB1F0008BB1F0008BB1F0008BB1F0008C8
:1000B000BB1F0008CB1C000891140008BB1F0008E0
:1000C000BB1F0008BB1F0008BB1F0008BB1F0008A8
:1000D000BB1F0008171F0008BB1F0008BB1F00083C
:1000E000BB1F0008BB1F0008BB1F0008BB1F000888
:1000F000BB1F0008BB1F0008BB1F0008BB1F000878
:10010000BB1F0008BB1F0008BB1F0008BB1F000867
:10011000BB1F0008BB1F0008BB1F0008BB1F000857
:10012000BB1F0008BB1F0008BB1F0008BB1F000847
:1001300000F002F800F03AF80AA090E8000C8244BF
:100140008344AAF10107DA4501D100F02FF8AFF29C
:10015000090EBAE80F0013F0010F18BFFB1A43F0A5
:1001600001031847E438000004390000103A24BFA6
:1001700078C878C1FAD8520724BF30C830C144BF0C
:1001800004680C607047000000230024002500264E
:10019000103A28BF78C1FBD8520728BF30C148BFEA
:1001A0000B6070471FB51FBD10B510BD03F01DFCDF
:1001B0001146FFF7F7FF00F0D6FF03F03BFC03B456
:1001C000FFF7F2FF03BC01F04BFE000010B5012069
:1001D000F7490860502001F016FE0020F549C1F8EB
:1001E000A00110BD10B5F449088801F033FCF249B4
:1001F000488801F054FCF049888801F077FCEE490A
:10020000C88801F098FCEC49088901F0BBFCEA4978
:10021000488901F0DEFC10BD01460A291CD2DFE846
:1002200001F005070A0D0F1113151719012013E02E
:100230004FF4007010E04FF480700DE080200BE070
:10024000402009E0202007E0102005E0082003E01E
:10025000042001E0022000BF00BF704770B5D748FE
:10026000407900F00F00D649087008460078002851
:1002700034D1D4480078401CD24908700846007830
:100280003C282BD1002522E0002416E0C5F109010D
:10029000C8B2FFF7C1FFCC4921F81400084630F876
:1002A0001400CA4909880844C94931F8141008449F
:1002B000C14921F81400601CC4B2062CE6DBFFF72C
:1002C00091FF4FF4FA7001F09EFD681CC5B20A2D33
:1002D000DADBFFF77BFF0020BA49087070BD10B56C
:1002E000BC480078002831D029E00A2001F08BFDBD
:1002F000B948007828B1B94800880A30B749088061
:1003000004E0B64800880A38B4490880B348008839
:1003100040F2B631884205DD0020AF490870012067
:10032000AF490870AD48008820B90120AA4908707B
:10033000AB490870A9480188AA4803F009F9A84800
:1003400000780028D1D00020A549087010BD10B554
:10035000A548007880B19E4A1188002007E09C4B98
:10036000421C33F8122023F81020421CD0B205287A
:10037000F5DB974A518100BF9648007818B94FF4D1
:100380007A7001F040FD10BD00B58C480078001176
:10039000964908708948007800F00F004870874837
:1003A0004078001188708548407800F00F00C870D0
:1003B00082488078001108718048807800F00F0032
:1003C00048717E48C078001188717C48C07800F080
:1003D0000F00C871794800790011087277480079D8
:1003E00000F00F0048727548407900118872734818
:1003F000407900F00F00C8727D48007868B106238C
:1004000009E07A49C85CFFF707FF991F6E4A22F896
:100410001100581CC3B20C2BF3DB7548007860B98F
:10042000002308E07149C85CFFF7F6FE664921F831
:100430001300581CC3B2062BF4DB00230EE0624805
:1004400030F81300614909880844614931F81310F4
:100450000844594921F81300581CC3B2062BEEDB9F
:1004600000BD10B5012052490860322001F0CBFCDC
:1004700000205049C1F8A0011E2001F0C4FC012059
:100480004B490860322001F0BEFC00204949C1F808
:10049000A0011E2001F0B7FC012045490860322070
:1004A00001F0B1FC00204349C1F8A00110BD514842
:1004B00000785A2836D00CDC30281FD004DC1028F5
:1004C00028D0182836D11DE0382827D0422831D12D
:1004D0002CE0682806D07A2818D0982806D0B028B2
:1004E00028D107E001204449087023E00220424956
:1004F00008701FE00320404908701BE004203E49BB
:10050000087017E005203C49087013E006203A49BE
:1005100008700FE00720384908700BE008203649C2
:10052000087007E009203449087003E000203249D0
:10053000087000BF00BF704710B501201C4908605B
:100540000A2001F060FC00201A49C1F8A00110BD8A
:1005500010B518E301F05CF82649087008460078E9
:1005600008B1FFF7E9FF2248007800287ED0FFF7A6
:100570009EFF204800785A2879D00EDC302877D0AA
:1005800006DC102875D0182874D022284AD13AE009
:10059000382870D04228F9D130E2B0286CD02DDC58
:1005A00068284FD07A2868D09828EFD186E00000DC
:1005B000A081214200802142600000200F00002025
:1005C000060000200700002078000020080000201E
:1005D0006C0000200C0000201800002016000020F5
:1005E0000E000020000400400D00002084000020C8
:1005F0000B0000200000002001000020C22812D0C3
:10060000E228C3D12DE2F948007818B90220F74951
:10061000087004E0F5480078401EF4490870002096
:10062000F349087037E2F1480078401CEF49087040
:1006300008460078022801DD002008700020EC49FF
:10064000087028E2EA48007800BBEA480178EA4AE4
:10065000E6480078C01C105C61F31F10C1B2E3488B
:100660000078C01C1154E248007807E014E28AE1E7
:100670008AE022E1BBE053E153E0EBE0401CDC49BF
:100680000870FFF781FEFFF7ADFD16E0DA49D748A5
:100690000078C01C085C00F0F000D64909780844D6
:1006A000C1B2D54AD1480078C01C11540020D049AD
:1006B0000870FFF769FEFFF795FDECE1CC48007884
:1006C000B8B9CC480178CC4AC8480078C01C105C46
:1006D00061F31F10C1B2C5480078C01C1154C44852
:1006E0000078401CC2490870FFF74EFEFFF77AFD04
:1006F00016E0C149BD480078C01C085C00F0F0005D
:10070000BC4909780844C1B2BB4AB8480078C01C4B
:1007100011540020B6490870FFF736FEFFF762FD5E
:10072000B9E1B3480078B8B9B2480178B24AAF48E5
:100730000078C01C105C61F31F10C1B2AB48007898
:10074000C01C1154AA480078401CA9490870FFF742
:100750001BFEFFF747FD16E0A749A4480078C01C20
:10076000085C00F0F000A34909780844C1B2A24A2D
:100770009E480078C01C115400209D490870FFF766
:1007800003FEFFF72FFD86E199480078B8B9994834
:100790000178994A95480078C01C105C61F31F10DD
:1007A000C1B292480078C01C115491480078401C96
:1007B0008F490870FFF7E8FDFFF714FD16E08E493A
:1007C0008A480078C01C085C00F0F000894909786C
:1007D0000844C1B2884A85480078C01C11540020E2
:1007E00083490870FFF7D0FDFFF7FCFC53E1804818
:1007F0000078B8B97F4801787F4A7C480078C01CEF
:10080000105C61F31F10C1B278480078C01C11540D
:1008100077480078401C76490870FFF7B5FDFFF770
:10082000E1FC16E0744971480078C01C085C00F0D7
:10083000F000704909780844C1B26F4A6B480078EB
:10084000C01C115400206A490870FFF79DFDFFF796
:10085000C9FC20E166480078B8B966480178664A64
:1008600062480078C01C105C61F31F10C1B25F4881
:100870000078C01C11545E480078401C5C49087028
:10088000FFF782FDFFF7AEFC16E05B4957480078A2
:10089000C01C085C00F0F000564909780844C1B259
:1008A000554A52480078C01C115400205049087025
:1008B000FFF76AFDFFF796FCEDE04D480078B8B908
:1008C0004C4801784C4A49480078C01C105C61F3E0
:1008D0001F10C1B245480078C01C1154444800782C
:1008E000401C43490870FFF74FFDFFF77BFC16E003
:1008F00041493E480078C01C085C00F0F0003D49CA
:1009000009780844C1B23C4A38480078C01C1154E8
:10091000002037490870FFF737FDFFF763FCBAE0A6
:1009200033480078B8B933480178334A2F48007803
:10093000C01C105C61F31F10C1B22C480078C01CB1
:1009400011542B480078401C29490870FFF71CFD02
:10095000FFF748FC16E0284924480078C01C085CD2
:1009600000F0F000234909780844C1B2224A1F4828
:100970000078C01C115400201D490870FFF704FDC9
:10098000FFF730FC87E01A480078B8B919480178B9
:10099000194A16480078C01C105C61F31F10C1B2E0
:1009A00012480078C01C115411480078401C1049AE
:1009B0000870FFF7E9FCFFF715FC16E00E490B483D
:1009C0000078C01C085C00F0F0000A49097808446F
:1009D000C1B2094A05480078C01C115400200449DE
:1009E0000870FFF7D1FCFFF7FDFB54E00200002088
:1009F00003000020010000200F000020FD480078C7
:100A0000B8B9FD480178FD4AFD480078C01C105C6B
:100A100061F31F10C1B2FA480078C01C1154F548A8
:100A20000078401CF3490870FFF7AEFCFFF7DAFBD3
:100A300016E0F249F2480078C01C085C00F0F000B3
:100A4000ED4909780844C1B2EC4AED480078C01C71
:100A500011540020E7490870FFF796FCFFF7C2FB2E
:100A600019E0E648C07824280BDAE44800796028C9
:100A700007DAE2484079602803DAE04800F064FFD2
:100A800001E0FFF7EEFC0020DA490870DC4908704D
:100A9000DC49087000BF00BFDB480078002872D135
:100AA000FFF705FDD94800785A286DD00EDC3028B4
:100AB0006BD006DC102869D0182868D0222823D1F2
:100AC00013E038287DD04228F9D1E5E1B02879D06B
:100AD00006DC682828D07A2875D09828EFD157E00E
:100AE000C22812D0E228EAD105E2C548007818B938
:100AF0000220C349087004E0C1480078401EC04984
:100B000008700020BB49087053E2BD480078401CC3
:100B1000BB49087008460078022801DD00200870F3
:100B20000020B449087044E2B2480078A8B9B2483D
:100B30000178B248B24A1278805C61F31F10AF4965
:100B4000AF4A12788854AB480078401CA949087015
:100B5000FFF71AFCFFF746FB14E0A848A8490978FC
:100B6000405C00F0F000A44909780844C1B2A348F1
:100B7000A34A1278815400209E490870FFF704FCB4
:100B8000FFF730FB15E215E258E160E0EAE08CE0A7
:100B900098480078C0B9984801789848984A1278DF
:100BA000805C61F31F109549954A127888549148EA
:100BB0000078401C8F490870FFF7E6FBFFF712FB37
:100BC00016E0FEE015E09EE08C488D490978405C17
:100BD00000F0F0008849097808448849884A12786A
:100BE0008854002083490870FFF7CEFBFFF7FAFA1C
:100BF000DFE180480078A8B97F4801787F48804AC3
:100C00001278805C61F31F107C497D4A1278885409
:100C100078480078401C77490870FFF7B5FBFFF76C
:100C2000E1FA13E0754876490978405C00F0F0007D
:100C30007149097808447149714A12788854002032
:100C40006C490870FFF7A0FBFFF7CCFAB1E16948E7
:100C50000078A8B9684801786848694A1278805CC9
:100C600061F31F106549664A12788854614800781C
:100C7000401C60490870FFF787FBFFF7B3FA13E0E9
:100C80005E485F490978405C00F0F0005A490978F5
:100C900008445A495A4A1278885400205549087025
:100CA000FFF772FBFFF79EFA83E152480078A8B97C
:100CB000514801785148524A1278805C61F31F1004
:100CC0004E494F4A127888544A480078401C494996
:100CD0000870FFF759FBFFF785FA13E047484849CA
:100CE0000978405C00F0F000434909780844434922
:100CF000434A1278885400203E490870FFF744FBAD
:100D0000FFF770FA55E13B480078A8B93A480178F6
:100D10003A483B4A1278805C61F31F103749384AE1
:100D20001278885433480078401C32490870FFF725
:100D30002BFBFFF757FA14E0304831490978405C43
:100D400000F0F0002C4909780844C1B22B482C4A25
:100D500012788154002027490870FFF715FBFFF730
:100D600041FA26E123480078A8B9234801782348AE
:100D7000234A1278805C61F31F102049204A1278C0
:100D800088541C480078401C1A490870FFF7FCFA88
:100D9000FFF728FA14E0194819490978405C00F077
:100DA000F000154909780844C1B21448144A127871
:100DB000815400200F490870FFF7E6FAFFF712FA96
:100DC000F7E00C48007818BB0B4801780B480C4A38
:100DD0001278805C61F31F100849094A1278885420
:100DE00004480078401C03490870FFF7CDFAFFF76C
:100DF000F9F922E003000020010000200F0000208C
:100E0000020000200A0000200B000020000000204B
:100E1000E848E9490978405C00F0F000E7490978C2
:100E20000844C1B2E348E44A127881540020E449FE
:100E30000870FFF7A9FAFFF7D5F9BAE0E0480078A3
:100E4000A8B9DE480178DB48DB4A1278805C61F3A0
:100E50001F10D849D84A12788854D9480078401CC5
:100E6000D7490870FFF790FAFFF7BCF913E0D148B3
:100E7000D1490978405C00F0F000D0490978084475
:100E8000CC49CD4A127888540020CD490870FFF72C
:100E90007BFAFFF7A7F98CE0C9480078A8B9C748E2
:100EA0000178C448C44A1278805C61F31F10C149BC
:100EB000C14A12788854C2480078401CC049087062
:100EC000FFF762FAFFF78EF914E0BA48BA490978D9
:100ED000405C00F0F000B94909780844C1B2B54857
:100EE000B54A127881540020B5490870FFF74CFAD2
:100EF000FFF778F95DE0AF484078132851DAAD4844
:100F00004078062820D004DC022807D004283CD1F1
:100F10000FE0092823D0112837D12BE0A54880788D
:100F2000302803DAA34800F00FFD01E0FFF799FA3B
:100F300036E0A0488078312803DA9E4800F004FDAE
:100F400001E0FFF78EFA2BE09A488078312803DA27
:100F5000984800F0F9FC01E0FFF783FA20E095489B
:100F60008078312803DA934800F0EEFC01E0FFF7C7
:100F700078FA15E08F488078312803DA8D4800F040
:100F8000E3FC01E0FFF76DFA0AE08A488078322836
:100F900003DA884800F0D8FC01E0FFF762FA00BFEE
:100FA00000BF002086490870834908708549087091
:100FB00000BF00BF8348007800287FF4CBAA10BD93
:100FC00010B500F025FB804908700846007800281D
:100FD00075D0FFF7B1FA7C480078522870D00EDC4B
:100FE000302860D006DC02281CD0102869D01828D0
:100FF00068D168E0382872D04228F9D124E09828D6
:1010000039D006DC5A286BD0682828D07A28EFD14E
:1010100067E0A22802D0B028EAD138E0012069496F
:1010200008709EE06948007838B100206749087070
:101030004FF440606649088005E00120634908706C
:101040008002634908808CE06248007818B1002073
:101050006049087002E001205E49087081E00024C8
:1010600006E04FF4A0405C4921F81400601CC4B2B3
:10107000062CF6DB75E0002406E04FF4405056499C
:1010800021F81400601CC4B2062CF6DB69E00024D1
:1010900006E04FF4C040504921F81400601CC4B26F
:1010A000062CF6DB5DE0002406E04FF480504A4950
:1010B00021F81400601CC4B2062CF6DB51E051E0AC
:1010C00041E01AE04AE0002406E04FF400504249B3
:1010D00021F81400601CC4B2062CF6DB41E018E0D5
:1010E00028E0002406E04FF480403B4921F814003A
:1010F000601CC4B2062CF6DB33E0002406E04FF49B
:10110000E040354921F81400601CC4B2062CF6DB1F
:1011100027E04FF4A040304908804FF44050488009
:10112000400088804FF48050C88040000881400013
:10113000488116E02948007808B9012000E0002025
:10114000264908700DE0002405E00020224921F81E
:101150001400601CC4B2062CF7DB02E0FFF781F933
:1011600000BF00BF10BD00F011FE00F026FC00F033
:101170004BFC4FF4A06000F033FF002140F28330BD
:1011800000F0B6FD00F02AF900F056FD10E0FFF780
:1011900017FFFFF7DDF9074800F0A0FBFFF7F4F8B1
:1011A000FFF720F8FFF7D3F8FFF799F8FFF756F8A5
:1011B000EDE700000F0000200200002001000020E9
:1011C000030000200A000020000000200B00002087
:1011D000080000200C0000206C0000200D00002002
:1011E000704700BFFEE700BFFEE700BFFEE700BF9D
:1011F000FEE7704770477047704700000CB500204D
:10120000019000906C48006840F480306A490860A2
:1012100000BF6948006800F4003000900198401C4D
:101220000190009818B90198B0F5A06FF1D162480B
:10123000006800F4003010B10120009001E00020AF
:1012400000900098012843D15C48006840F01000ED
:101250005A4908600846006820F003000860084604
:10126000006840F0020008605348406852494860F6
:101270000846406848600846406840F4806048601E
:101280000846406820F47C1048600846406840F4F6
:10129000E81048600846006840F08070086000BFB1
:1012A0004548006800F000700028F9D042484068C6
:1012B00020F00300404948600846406840F00200C2
:1012C000486000BF3C48406800F00C000828F9D195
:1012D0000CBD10B5FFF792FF10BD10B53648006881
:1012E00040F001003449086008464068344908402D
:1012F0003149486008460068324908402E49086074
:101300000846006820F4802008600846406820F401
:10131000FE0048604FF41F008860FFF7DAFF4FF0CF
:1013200000602949086010BD10B50021002000228E
:10133000214B5B6803F00C0121B1042906D0082978
:1013400028D107E0214B224C236027E01F4B204C83
:10135000236023E0184B5B6803F47010164B5B6846
:1013600003F48032022303EB904022B9194B43432C
:10137000174C23600DE0104B5B6803F4003323B17E
:10138000144B4343124C236003E0104B4343104C77
:10139000236003E00D4B0E4C236000BF00BF064BE3
:1013A0005B68C3F303130C4CE15C094B1B68CB4037
:1013B000074C236010BD00000010024000200240D6
:1013C0000000FFF8FFFFF6FE08ED00E000127A00D3
:1013D0001C00002000093D002000002000B589B05D
:1013E0000121082001F086F90121042001F08FF984
:1013F0004FF40070ADF8200028208DF82300032062
:101400008DF8220008A9994800F0B8FE4FF4007149
:10141000964800F060FF42F21070ADF814004720CB
:10142000ADF810000020ADF81600ADF8120004A9C8
:101430008F4801F097FA0C20ADF804000020ADF8B9
:1014400006000120ADF808000020ADF80A000320D6
:10145000ADF80C0001A9864801F017FD0121844870
:1014600001F0DCFD1E208DF81C0001208DF81D0010
:1014700003208DF81E0001208DF81F0007A800F042
:10148000B4FD012211217A4801F0E3FD09B000BD4D
:1014900010B50121764802F08AF8F8B17548007855
:1014A00000F08000D0B17348007820F0100071493E
:1014B00008700846007800F00F0020B90846007850
:1014C00040F0400008706B48007800F00F000028E2
:1014D00005DA68480078401C664908700AE06548EB
:1014E000007820F08000634908700846007800F01A
:1014F000F000087010215E4802F059F8002810D062
:101500005D48006870B10221594801F07FFF002159
:10151000574802F017F85748007840F01000554936
:10152000087070E0524802F02CF8544908800021FD
:101530004F4801F06BFF4F48007800F01000002882
:101540005BD04C48007800F08000E8B34B4800883E
:10155000B0F5967F0DDD49480088B0F5487F08DA80
:10156000474800684000464908600846006808602F
:1015700043E042480088B0F5AF6F0FDD3F48008878
:10158000B0F5E16F0ADA3E48006840003C49086067
:101590000846006840F0010008602EE037480088E7
:1015A00040F69801884228DD3448008840F628211A
:1015B000884222DA33480078401C324908702D48AE
:1015C000007800F0F00000E002E02A49087014E022
:1015D0002A48008841F2680188420EDD27480088C9
:1015E00041F25C21884208DA2248007840F080000D
:1015F000204908700020234908701E48007820F018
:1016000010001C4908701121194801F0E1FF10BDBC
:1016100010B50020174B1B7803F040032BB3184B79
:101620001B68190E164B1B68C3F30742D343DBB28A
:101630008B420BD151B9124B1B88C3F30721104BBE
:101640001A78D343DBB28B4200D1084620B1094B54
:101650001B7803F0800343B9064B1B7823F040034B
:10166000044C23700023074C237010BD000C014074
:101670000008004030000020248121423200002078
:10168000340000203800002010B50121042001F0B2
:1016900031F84FF4E051DA4800F01FFE4FF4E0500B
:1016A000D84908801020C87003208870D44800F002
:1016B00065FD10BD00E000BF0100A0F10100FAD1FE
:1016C000704710B54FF40060CE4908801020C870F4
:1016D000CB4800F053FD10BD10B54FF40060C94970
:1016E00008804820C870C64800F048FD10BD70B59D
:1016F000054601241CE005EA040028B14FF400600F
:10170000BF491031086004E04FF40060BC49143157
:1017100008604FF48060BA49103108603220FFF74A
:10172000C9FF4FF48060B649143108606006040EAA
:10173000002CE0D170BD70B50025012415E0B04843
:101740000830006800F4006000B125434FF4806069
:10175000AB49103108603220FFF7ACFF4FF48060D6
:10176000A749143108606006040E002CE7D1284612
:1017700070BD70B505460C46FFF7A3FF4FF48050CF
:101780009F4914310860801008608000091F0860BC
:101790006420FFF78FFF2846FFF7A9FF2046FFF7D9
:1017A000A6FF6420FFF786FF4FF480509449143160
:1017B000086070BD70B504460025FFF782FF4FF446
:1017C00080508F4914310860801008608000091F24
:1017D00008606420FFF76EFF44F00100FFF787FF09
:1017E000FFF77AFFFFF7A7FF05466420FFF762FFC8
:1017F0004FF48050824914310860284670BD10B5FE
:1018000004468C20FFF7D6FF20708A20FFF7D2FF16
:1018100060708820FFF7CEFFA0708620FFF7CAFF18
:10182000E0708420FFF7C6FF20718220FFF7C2FF1F
:1018300060718020FFF7BEFFA07110BD70B5044637
:10184000C02040EA4400C5B22846FFF7B3FF064671
:10185000304670BD70B504460D4600218E20FFF75E
:1018600088FFC02040EA4400C6B229463046FFF750
:1018700080FF80218E20FFF77CFF70BD2DE9F041B5
:1018800005460F4616461E2E01DDBDE8F0810024F8
:1018900008E0791C2144C8B2FFF7D0FF28706D1C06
:1018A000601CC4B2B442F4DB00BFEEE72DE9F041A6
:1018B00005460F4616461E2E01DDBDE8F0810024C8
:1018C00008E015F8011B7A1C2244D0B2FFF7C2FFD2
:1018D000601CC4B2B442F4DB00BFEEE710B50446AE
:1018E000FFF7EFFE4FF48050454914310860801037
:1018F00008608000091F08606420FFF7DBFEBF203E
:10190000FFF7F5FEFFF7E8FEFFF715FF6071FFF741
:1019100012FF2071FFF70FFFE070FFF70CFFA070C0
:10192000FFF709FF6070FFF706FFA071FFF703FFE5
:101930002070FFF700FF6420FFF7BCFE4FF48050DB
:101940002F491431086010BD10B5044600218E20C7
:10195000FFF70FFFFFF7B5FE4FF480502849143111
:101960000860801008608000091F08606420FFF78D
:10197000A1FEBE20FFF7BBFE6079FFF7B8FE20791D
:10198000FFF7B5FEE078FFF7B2FEA078FFF7AFFEF5
:101990006078FFF7ACFE0120FFF7A9FE2078FFF783
:1019A000A6FE8020FFF7A3FE6420FFF783FE4FF41E
:1019B000805013491431086010BD10B5FFF764FE64
:1019C0000020FFF73BFF044684F0A500B8B1A52135
:1019D0000020FFF73FFF00218E20FFF7CAFE032102
:1019E0009020FFF7C6FE00218420FFF7C2FE0021F1
:1019F0008020FFF7BEFE80218E20FFF7BAFE10BDCB
:101A0000000801403A00002008B50121042000F040
:101A100071FE40F2FE30ADF8000010208DF803009A
:101A200003208DF8020069467D4800F0A7FB0121E4
:101A3000082000F05FFE4FF60740ADF800001020D0
:101A40008DF8030003208DF802006946754800F008
:101A500095FB08BD102117E000F400421AB10122E5
:101A6000714B1A6002E000226F4B1A6001226E4B2C
:101A700008331A6000226D4BC3F898214FF6FF72AD
:101A800002EA40004A1E91B20029E5DC0122664BC1
:101A90001B1D1A600022654BC3F89421704710216A
:101AA00019E000F4004222B101225F4B0C3B1A60A6
:101AB00003E000225C4B0C3B1A6001225A4B1B1FB7
:101AC0001A600022594BC3F88C214FF6FF7202EACC
:101AD00040004A1E91B20029E3DC0122524B083B30
:101AE0001A600022514BC3F888217047102117E07B
:101AF00000F400421AB101224D4B1A6002E00022AC
:101B00004B4B1A6001224A4B24331A600022494B86
:101B1000C3F8AC214FF6FF7202EA40004A1E91B2B0
:101B20000029E5DC0122424B20331A600022414BA0
:101B3000C3F8A8217047102119E000F4004222B137
:101B40000122394B0C331A6003E00022364B0C3370
:101B50001A600122364B1B1F1A600022354BC3F856
:101B600084214FF6FF7202EA40004A1E91B200291A
:101B7000E3DC01222E4B083B1A6000222D4BC3F8F8
:101B800080217047102119E000F4004222B10122A7
:101B9000274B34331A6003E00022254B34331A609C
:101BA0000122214B14331A600022204BC3F8A421D8
:101BB0004FF6FF7202EA40004A1E91B20029E3DCB0
:101BC0000122194B10331A600022184BC3F8A021D0
:101BD0007047102119E000F4004222B10122144B99
:101BE00028331A6003E00022114B28331A600122C7
:101BF0000F4B30331A6000220E4BC3F8B8214FF65A
:101C0000FF7202EA40004A1E91B20029E3DC012281
:101C1000074B2C331A600022064BC3F8B4217047DF
:101C200000080140000C01409001214200002142C7
:101C3000888121420080214208B50121082000F05E
:101C400059FD4FF48070ADF8000010208DF80300AE
:101C500003208DF802006946044800F08FFA4FF423
:101C60008071024800F039FB08BD0000000C014003
:101C70007FB505460C460121022000F048FDADF875
:101C80000850ADF804400020ADF80A00ADF8060099
:101C900001A93A4800F066FE01221146374801F0DA
:101CA000D8F91D208DF8000000208DF801000320D8
:101CB0008DF8020001208DF80300684600F095F9C8
:101CC00001212E4801F0AAF97FBD10B501212B4852
:101CD00001F06DFC58B10121284801F079FC284839
:101CE000006808B9012000E000202549086010BD07
:101CF00030B589B005460C460121022000F007FDF1
:101D00000121092000F0F6FC01211E4800F007FB2C
:101D10002020ADF8200018208DF8230003208DF836
:101D2000220008A9184800F029FA2021164800F0DE
:101D3000D4FAADF81850ADF814400020ADF81A00F0
:101D4000ADF8160005A90D4800F00CFE7020ADF8A6
:101D500004000120ADF806000020ADF80C0001A938
:101D6000064800F07EFE0821044801F090FA0121A7
:101D7000024801F053F909B030BD000000040040F2
:101D80009401234200081A00000C014010B56FF0C6
:101D9000040000F074F92E4800682E49B0FBF1F001
:101DA0002D4908700846007800EB4001C1EBC010D7
:101DB0004FF6FF7101EAC0002849088010BD0146B6
:101DC000254A12784A434FF0E0235A6100229A6173
:101DD0001A46126942F001021A6100BF4FF0E02278
:101DE000106900F001021AB100F48032002AF5D027
:101DF0004FF0E022126922F001024FF0E0231A6155
:101E000000229A6170470146144A12884A434FF0F3
:101E1000E0235A6100229A611A46126942F00102D7
:101E20001A6100BF4FF0E022106900F001021AB100
:101E300000F48032002AF5D04FF0E022126922F03F
:101E400001024FF0E0231A6100229A6170470000FE
:101E50001C00002000127A003E00002040000020FC
:101E6000014600BF704700BF494A128802F0400295
:101E7000002AF9D0C2B2464B1B1D1A80704710B51C
:101E800086B00446012144F2040000F033FC4FF414
:101E90000070ADF8140003208DF8160018208DF89E
:101EA000170005A93B4800F069F94FF48060ADF8D0
:101EB000140004208DF8170005A9364800F05EF9DB
:101EC00025208DF8000003208DF801008DF8020018
:101ED00001208DF80300684600F087F80194002087
:101EE000ADF80800ADF80A00ADF80C00ADF8100030
:101EF0000C20ADF80E0001A9254801F0B0FB01222D
:101F000040F22551224801F042FC0121204801F015
:101F100032FC06B010BD10B540F225511C4801F04E
:101F20001BFD10B31A4801F097FCC4B21A48008890
:101F300000F40040C8B91848008800F4804060B13F
:101F40000A2C03D000201449088020E012480088A1
:101F500040F400401049088019E00D2C06D10E48CD
:101F6000008840F480400C49088010E00A4800884E
:101F7000C0F30D0009490C5407480088401C06496D
:101F8000088008460088C72801DD0020088010BDB1
:101F90000038014000080140480000209000002067
:101FA0000948804709480047FEE7FEE7FEE7FEE7ED
:101FB000FEE7FEE7FEE7FEE7FEE7FEE70448054929
:101FC000054A064B70470000DB120008310100088B
:101FD000B8010020B8070020B8030020B803002093
:101FE00031490143314A1160704770B50021002327
:101FF0000F22C47804B32D4C246804F4E064C4F5C3
:10200000E064210AC1F10403CA40447804FA03F1F0
:102010008478144021430901254C0678A1550478A1
:1020200004F01F050124AC4005786D11AD0005F1E9
:10203000E025C5F8004109E0047804F01F050124FB
:10204000AC401C4D0678761145F8264070BD1A4A02
:102050000A400243154B1B1F1A60704739B1134ADF
:10206000121D12680243114B1B1D1A6006E00F4A35
:10207000121D126882430D4B1B1D1A607047042805
:1020800008D14FF0E021096941F004014FF0E0224E
:10209000116107E04FF0E021096921F004014FF0E0
:1020A000E0221161704700000000FA050CED00E02D
:1020B00000E400E080E100E080FFFF1F10B504466F
:1020C000CC48844208D10121042000F02DFB0021DE
:1020D000042000F029FB46E0C748844208D10121D2
:1020E000082000F021FB0021082000F01DFB3AE051
:1020F000C248844208D10121102000F015FB0021C4
:10210000102000F011FB2EE0BD48844208D10121CF
:10211000202000F009FB0021202000F005FB22E038
:10212000B848844208D10121402000F0FDFA002186
:10213000402000F0F9FA16E0B348844208D10121AA
:10214000802000F0F1FA0021802000F0EDFA0AE092
:10215000AE48844207D10121801500F0E5FA002144
:10216000A01500F0E1FA10BD10B50121084600F0FD
:10217000DBFA0021012000F0D7FA10BD2DE9F04173
:10218000024600250026002000230024002791F8A5
:1021900003C00CF00F0591F803C00CF0100CBCF15B
:1021A000000F03D091F802C04CEA050591F800C079
:1021B000BCF1000F31D0146800202BE04FF0010C6F
:1021C0000CFA00F3B1F800C00CEA03069E4220D1DD
:1021D00083004FF00F0C0CFA03F7BC4305FA03FC25
:1021E0004CEA040491F803C0BCF1280F06D14FF06B
:1021F000010C0CFA00FCC2F814C00AE091F803C00C
:10220000BCF1480F05D14FF0010C0CFA00FCC2F8EC
:1022100010C0401C0828D1D31460B1F800C0BCF134
:10222000FF0F34DD546800202EE000F1080C4FF061
:10223000010808FA0CF3B1F800C00CEA03069E424C
:1022400021D183004FF00F0C0CFA03F7BC4305FAC1
:1022500003FC4CEA040491F803C0BCF1280F05D13B
:1022600000F1080C08FA0CF8C2F8148091F803C0C9
:10227000BCF1480F07D100F1080C4FF0010808FA33
:102280000CF8C2F81080401C0828CED35460BDE87A
:10229000F0814FF6FF710180022181700421C1702D
:1022A00070470246002093680B400BB1012000E00C
:1022B000002070470146886880B2704702460020BF
:1022C000D3680B400BB1012000E0002070470146AD
:1022D000C86880B2704701617047416170470AB1B8
:1022E000016100E041617047C16070474FF4803286
:1022F0000A43826181618261826982697047024614
:102300000020434B18684FF68073184040EA0210D3
:1023100008433F4B186070473E49C8617047F0B5AD
:102320000A46002300240021002500F00046B6F1F3
:10233000004F02D1364EF16901E0354E7168C0F3AD
:10234000034583B200F44016B6F5401F08D121F0D2
:1023500070612F4E766826F070662D4F7E6012E019
:1023600000F48016B6F5801F06D1032606FA05F4A0
:10237000A14341F0706106E0460D360103FA06F60E
:10238000B14341F0706122B1460D360103FA06F601
:10239000314300F00046B6F1004F02D11C4EF1610E
:1023A00001E01B4E7160F0BD30B500228B071C0FA1
:1023B0000F2303FA04F2164B08338C1053F8243021
:1023C0009343134C08348D1044F8253023468C1069
:1023D00053F824308C07240F00FA04F423430C4CE8
:1023E00008348D1044F8253030BD0A49DC310860CE
:1023F0007047000000080140000C0140001001403F
:102400000014014000180140001C01400020014060
:102410000000014000002042DF48006840F0010059
:10242000DD49086008464068DC490840DA494860F0
:1024300008460068DA490840D7490860084600683D
:1024400020F4802008600846406820F4FE004860C0
:102450004FF41F0088607047CF49096821F480312C
:10246000CD4A11601146096821F480211160B0F550
:10247000803F03D0B0F5802F0ED106E0C649096831
:1024800041F48031C44A116007E0C349096841F44E
:10249000A021C14A116000E000BF00BF704710B525
:1024A00001460022002300204A11012A02D1BA4C21
:1024B000236806E0022A02D1B74C236A01E0B64C39
:1024C000636A01F01F02012494401C400CB10120FA
:1024D00000E0002010BD38B5002000900024002549
:1024E00000BF3120FFF7DBFF05460098401C00903D
:1024F0000098B0F5A06F01D0002DF2D03120FFF789
:10250000CEFF08B1012400E00024204638BD01467A
:102510000020A14A106820F0F80040EAC1001060D5
:102520007047A04908607047024600209A4B5868DF
:1025300020F47C1042EA01031843974B586070471F
:1025400098490866704701460020934A506820F079
:1025500003000843506070478F48406800F00C004B
:102560007047014600208C4A506820F0F000084374
:102570005060704701460020874A506820F4E060B0
:1025800008435060704701460020834A506820F499
:10259000605040EAC1005060704729B17E4A527ACB
:1025A00002437D4B5A7204E07B4A527A82437A4B53
:1025B0005A7270477B49D831086070470146002045
:1025C000754A506820F4404008435060704700212D
:1025D000714A20321170704A82F82010012802D00E
:1025E00004280AD104E001216B4A2032117005E071
:1025F0000521694A2032117000E000BF00BF70471A
:102600006949086070476449096A0143624A116276
:102610007047654944390860704730B50021002291
:10262000002400235C4D6D6805F00C0121B10429E4
:1026300005D0082923D105E05C4D056022E05B4D03
:1026400005601FE0544D6D6805F47012524D6D68C1
:1026500005F48034022505EB92421CB9544D5543D4
:1026600005600BE04C4D6D6805F400351DB1504D13
:102670005543056002E04D4D5543056002E04B4D6A
:10268000056000BF00BF444D6D6805F0F001090909
:10269000484D6B5C0568DD4045603F4D6D6805F455
:1026A000E061090A434D6B5C4568DD4085603A4D49
:1026B0006D6805F46051C90A3E4D6B5C4568DD40AC
:1026C000C560354D6D6805F44041890B3A4D6B5C32
:1026D000C568B5FBF3F5056130BD29B12E4A5269D5
:1026E00002432D4B5A6104E02B4A526982432A4B24
:1026F0005A61704729B1284A92690243264B9A6170
:1027000004E0254A92698243234B9A61704729B1BC
:10271000214AD2690243204BDA6104E01E4AD269A1
:1027200082431D4BDA61704729B11B4AD2680243CC
:10273000194BDA6004E0184AD2688243164BDA601B
:10274000704729B1144A12690243134B1A6104E01D
:10275000114A12698243104B1A617047124940397D
:10276000086070470F49C86470470B49C8717047CB
:102770000948406A40F08070074948627047014646
:102780000020054A92680A400AB1012000E00020BA
:102790007047014988727047001002400000FFF83E
:1027A000FFFFF6FE000042428004424200127A001F
:1027B00000093D004A0000205A00002010B50446E0
:1027C000FE48844208D10121C014FFF7ADFF00216B
:1027D000E014FFF7A9FFC4E0B4F1804F08D1012154
:1027E0000846FFF7AEFF00210120FFF7AAFFB8E07F
:1027F000F348844208D101210220FFF7A2FF002103
:102800000220FFF79EFFACE0EE48844208D1012190
:102810000420FFF796FF00210420FFF792FFA0E0BD
:10282000E948844208D101210820FFF78AFF0021EE
:102830000820FFF786FF94E0E448844208D1012194
:102840001020FFF77EFF00211020FFF77AFF88E0BD
:10285000DF48844208D101212020FFF772FF0021C8
:102860002020FFF76EFF7CE0DA48844208D1012186
:102870004014FFF759FF00216014FFF755FF70E087
:10288000D548844209D10121C804FFF74DFF00213A
:102890004FF40020FFF748FF63E0D048844209D19D
:1028A00001210805FFF740FF00214FF48010FFF7DA
:1028B0003BFF56E0CA48844209D101214805FFF791
:1028C00033FF00214FF40010FFF72EFF49E0C54809
:1028D000844208D101214020FFF733FF002140202E
:1028E000FFF72FFF3DE0C048844208D1012180203E
:1028F000FFF727FF00218020FFF723FF31E0BB48CF
:10290000844208D101218015FFF71BFF0021A0158B
:10291000FFF717FF25E0B648844209D101210804DA
:10292000FFF702FF00214FF48030FFF7FDFE18E0B3
:10293000B048844209D101214804FFF7F5FE002187
:102940004FF40030FFF7F0FE0BE0AB48844208D1B3
:1029500001218804FFF7E8FE00214FF48020FFF7F3
:10296000E3FE10BD00220288944B98420ED0994B92
:1029700098420BD0B0F1804F08D0914B984205D0CF
:10298000904B984202D0904B984204D14FF68F73EF
:102990001A404B881A438D4B984207D08C4B984273
:1029A00004D04FF6FF431A40CB881A4302808B882D
:1029B00083850B880385814B98420BD0854B9842C9
:1029C00008D08B4B984205D08A4B984202D08A4B54
:1029D000984201D10B7A038601238382704770B538
:1029E000002400220023058C4FF6FE763540058436
:1029F000028C8388048B4FF68F752C40B51E2C40BB
:102A00000D882C43751E2A400D892A434D882A4380
:102A10006A4DA8420BD06F4DA84208D0744DA84211
:102A200005D0744DA84202D0734DA84213D14FF681
:102A3000F7752A404D892A434FF6FB752A408D8849
:102A40002A434FF6FF652B404FF6FF552B408D89EB
:102A50002B43CD892B4383800483CD8885860284D4
:102A600070BD70B5002400220023058C4FF6EF7670
:102A700035400584028C8388048B48F6FF752C4012
:102A80004FF6FF452C400D884FF6FF7606EA0525E8
:102A90002C434FF6DF752A400D8906EA05152A43B7
:102AA0004D8806EA05152A43444DA84202D0494DF7
:102AB000A8421DD14FF67F752A404D894FF6FF760B
:102AC00006EA05152A434FF6BF752A408D8806EAA7
:102AD00005152A434FF6FF352B404FF2FF752B406B
:102AE0008D8906EA85052B43CD8906EA85052B43AA
:102AF00083800483CD880587028470BD70B500246F
:102B000000220023058C4FF6FF6635400584028CB9
:102B10008388848B4FF68F752C404FF6FC752C40C4
:102B20000D882C434FF6FF552A400D894FF6FF764E
:102B300006EA05252A434D8806EA05252A431F4D46
:102B4000A84202D0234DA8421DD14FF2FF752A4062
:102B50004D894FF6FF7606EA05252A434FF6FF35E5
:102B60002A408D8806EA05252A434EF6FF752B403C
:102B70004DF6FF752B408D8906EA05152B43CD894F
:102B800006EA05152B4383808483CD8885870284DC
:102B900070BD70B5002200230024058C4EF6FF7630
:102BA00035400584038C8488828B48F6FF752A4063
:102BB0004FF6FF452A400D8820E00000002C014020
:102BC0000004004000080040000C004000100040DD
:102BD0000014004000340140004C0140005001400E
:102BE0000054014000180040001C0040002000403C
:102BF0000040014000440140004801404FF6FF768C
:102C000006EA05252A434DF6FF752B400D8906EA95
:102C100005352B434D8806EA05352B43FA4DA8426E
:102C200002D0FA4DA84208D14BF6FF752C408D8991
:102C30004FF6FF7606EA85152C4384808283CD8883
:102C4000A0F84050038470BD828B4FF2FF331A40CE
:102C50008283828B4FF6FF7303EA01231A43828338
:102C60007047F0B50C461546002200210026078C5F
:102C70004EF6FF7C07EA0C070784828B018C4FF627
:102C8000FF7707EA043640F6FF473A404FF6FF77F2
:102C900007EA05273A434FF6FF7707EA03373A4337
:102CA000D94FB8420ED0D94FB8420BD0B0F1804FB7
:102CB00008D0D74FB84205D0D64FB84202D0D64F31
:102CC000B84206D14DF6FF77394046F48057394374
:102CD00005E047F6FF57394044F480573943828373
:102CE0000184F0BD828B4FF6F3731A408283828B8E
:102CF0000A4382837047F0B50C4615460022002136
:102D00000026078C4FF6FF6C07EA0C070784828BBE
:102D1000018C4FF6FF7707EA04264FF60C773A400E
:102D20004FF6FF7707EA03172F433A43B64FB842EF
:102D30000ED0B64FB8420BD0B0F1804F08D0B44F90
:102D4000B84205D0B34FB84202D0B34FB84206D113
:102D50004FF6FF57394046F48077394305E04FF28C
:102D6000FF57394044F48077394382830184F0BDB2
:102D7000028B4FF2FF331A400283028B4FF6FF7330
:102D800003EA01231A4302837047F0B50C46154647
:102D9000002200210026078C4FF6EF7C07EA0C0783
:102DA0000784028B018C4FF6FF7707EA041640F682
:102DB000FF473A404FF6FF7707EA03373A434FF6AB
:102DC000FF7707EA05273A438F4FB8420ED08F4F5F
:102DD000B8420BD0B0F1804F08D08D4FB84205D02B
:102DE0008C4FB84202D08C4FB84206D14FF6DF77F5
:102DF000394046F01007394305E04FF65F77394018
:102E000044F01007394302830184F0BD028B4FF672
:102E1000F3731A400283028B0A4302837047F0B5B2
:102E20000C46154600220021068C4FF6FE773E40E8
:102E30000684028B018C4FF60C7632407E1C06EA2B
:102E400003162E433243704EB0420ED06F4EB04246
:102E50000BD0B0F1804F08D06D4EB04205D06D4E12
:102E6000B04202D06C4EB04206D14FF6FD763140F2
:102E700044F00106314305E04FF6F576314044F069
:102E80000106314302830184F0BD70B505460C464E
:102E90005D4885420ED05D4885420BD0B5F1804F2C
:102EA00008D05B48854205D05A48854202D05A482E
:102EB000854200D100E000BF208850B92389A28854
:102EC00061882846FFF7ABFFE1882846FFF79EFFA1
:102ED00025E0208804280AD12389A2886188284611
:102EE000FFF753FFE1882846FFF742FF17E02088ED
:102EF00008280AD12389A28861882846FFF7FBFEAB
:102F0000E1882846FFF7EEFE09E02389A288618860
:102F10002846FFF7A6FEE1882846FFF795FE70BD1C
:102F20002DE9F04105460C4600260127608808B9C6
:102F3000022600E00026A088012801D1022700E037
:102F400001272088A0B92389A28861882846FFF735
:102F500066FFE1882846FFF759FF23893A46314644
:102F60002846FFF712FFE1882846FFF701FF13E02C
:102F70002389A28861882846FFF707FFE188284651
:102F8000FFF7F6FE23893A4631462846FFF747FF0A
:102F9000E1882846FFF73AFFBDE8F0810A884B88B0
:102FA0001A438B881A43CB881A430B891A434B89DF
:102FB0001A438B891A43A0F8442070474FF6FF71DB
:102FC000818000210180C180418001727047002111
:102FD000018041808180C180018141818181C181E5
:102FE0007047002101804180012181800021C18042
:102FF000018170470021018041808180C180018171
:103000004181818170470000002C01400034014063
:103010000004004000080040000C004021B102887C
:1030200042F00102028004E002884FF6FE731A406B
:103030000280704731B1B0F8442042F40042A0F859
:10304000442005E0B0F84420C2F30E02A0F844206A
:1030500070471AB183890B43838102E083898B43D4
:10306000838170478182704741EA0203A0F84830AB
:1030700070471AB183890B43838102E083898B43B4
:103080008381704701894FF6F872114001817047C2
:103090000A46002101894FF68F73194011430181BF
:1030A000704730B504460D4629462046FFF7F0FF2D
:1030B000208940F00700208130BD2DE9F041044611
:1030C0000D4616461F46602D06D13B46012231466D
:1030D0002046FFF75AFE05E03B46012231462046D6
:1030E000FFF79DFE29462046FFF7D2FF208940F0DA
:1030F00007002081BDE8F08130B50C460021018930
:10310000C9B24FF6FF7505EA032515432543294348
:10311000018130BD2DE9F04105460E46174698461F
:10312000002443463A4631462846FFF7E5FF2C89FE
:103130004FF6F870044044F007044FF68F700440D7
:1031400044F070042C81BDE8F081F0B504460D46D2
:1031500016461F463B46324629462046FFF7CCFF1F
:10316000208940F480402081F0BD01858282704733
:103170000A46002101884FF68F73194011430180E0
:103180007047F0B50C4615461E460021002200236C
:103190000189028B038C4FF6F877394021434FF6B3
:1031A000FC473A4040F201173A434FF6DD773B4087
:1031B0004FF6FF7707EA06172F433B43018102834F
:1031C0000384F0BD0A460021018B4FF68F7319402E
:1031D0001143018370470A460021018B48F6FF73B3
:1031E00019404FF6FF7303EA022319430183704726
:1031F0000A460021818B4FF68F731940114381835A
:1032000070470A460021818B48F6FF7319404FF63C
:10321000FF7303EA022319438183704721B10288B7
:1032200042F08002028004E002884FF67F731A4069
:103230000280704721B1828842F00402828004E05B
:1032400082884FF6FB731A408280704721B18288D2
:1032500042F00802828004E082884FF6F7731A4039
:103260008280704721B1828842F00102828004E0AE
:1032700082884FF6FE731A40828070470A4600210A
:10328000018B4FF6F77319401143018370470A46CB
:103290000021018B4FF2FF7319404FF6FF7303EAD1
:1032A00002231943018370470A460021818B4FF6A0
:1032B000F77319401143818370470A460021818BBF
:1032C0004FF2FF7319404FF6FF7303EA02231943CD
:1032D000818370470A460021018B4FF6FB7319402A
:1032E0001143018370470A460021018B4FF6FF33DB
:1032F00019404FF6FF7303EA022319430183704715
:103300000A460021818B4FF6FB73194011438183DC
:1033100070470A460021818B4FF6FF3319404FF664
:10332000FF7303EA02231943818370470A46002191
:10333000018B4FF67F7319401143018370470A4692
:103340000021018BC1F30E014FF6FF7303EA022344
:103350001943018370470A460021818B4FF67F7322
:1033600019401143818370470A460021818BC1F3C4
:103370000E014FF6FF7303EA02231943818370475E
:103380000A460021018C4FF6FD7319401143018458
:1033900070470A460021018C4FF6F773194011431C
:1033A000018470470A460021018C4FF6DF731940F3
:1033B0004FF6FF7303EA02131943018470470A466C
:1033C0000021018C4FF67F7319404FF6FF7303EA1B
:1033D00002131943018470470A460021018C4FF6FD
:1033E000FF5319404FF6FF7303EA02231943018488
:1033F00070470A460021018C4FF2FF7319404FF6C7
:10340000FF7303EA02231943018470470A4600212F
:10341000018C4DF6FF7319404FF6FF7303EA023338
:1034200019430184704730B5002301248C40A3B2B6
:10343000048C9C430484048C02FA01F5ADB22C4345
:10344000048430BD30B5002304248C40A3B2048C26
:103450009C430484048C02FA01F5ADB22C4304842D
:1034600030BD70B5034600200024184618300125F1
:103470008D40ACB21D8CA5431D8409B1082909D12A
:1034800000EB6100056825F07005056005681543CF
:1034900005600EE00D1FC5F34E052844056825F4B0
:1034A000E045056005684FF6FF7606EA02263543DB
:1034B000056070BD21B1028842F00202028004E082
:1034C00002884FF6FD731A400280704721B10288CE
:1034D00042F00402028004E002884FF6FB731A40B7
:1034E0000280704721B1828842F08002828004E02D
:1034F00082884FF67F731A408280704702884FF6A9
:10350000F7731A40028002880A430280704782885B
:103510004FF68F731A40828082880A4382807047F8
:1035200002894FF6F8731A40028102890A43028128
:10353000704702894FF67F731A40028102890A435D
:10354000028170478184704781857047818670470A
:103550000187704781877047A0F840107047028844
:103560004FF6FF431A40028002880A4302807047E8
:103570000146888E70470146088F70470146888F44
:1035800070470146B1F8400070470146888C70478B
:103590000146088D704702460020138A0B400BB18C
:1035A000012000E000207047CA430282704730B516
:1035B0000246002000230024158A05EA01039589AC
:1035C00005EA010413B10CB1012000E0002030BD78
:1035D000CA4302827047000010B50446FB4884428B
:1035E00009D101218803FFF79FF800214FF48040A3
:1035F000FFF79AF832E0F648844209D101214804E5
:10360000FFF79FF800214FF40030FFF79AF825E00C
:10361000F048844209D101218804FFF792F8002183
:103620004FF48020FFF78DF818E0EB48844209D171
:103630000121C804FFF785F800214FF40020FFF7AF
:1036400080F80BE0E548844208D101210805FFF726
:1036500078F800214FF48010FFF773F810BD2DE9C2
:10366000F04786B005460E460024A24600BFA1469C
:103670000027B08900B100BF2F462C8A4CF6FF709E
:103680000440F08804432C82AC894EF6F3100440C9
:10369000B08831890843718908430443AC81AC8AFE
:1036A0004FF6FF400440B0890443AC8201A8FEF706
:1036B000B4FFC648874202D1DDF810A001E0DDF872
:1036C0000CA0A88900F4004040B10AEBCA0000EB4E
:1036D0000A1031684900B0FBF1F807E00AEBCA00B4
:1036E00000EB0A1031688900B0FBF1F86420B8FBE8
:1036F000F0F004012009642101FB1089A88900F47D
:10370000004040B1322000EBC900B0FBF1F000F006
:103710000700044308E0322000EB09106421B0FBED
:10372000F1F000F00F0004432C8106B0BDE8F087F3
:103730004FF41651016000218180C18001810C216C
:10374000418100218181704710B502460020108A16
:103750004FF2FF0318400B884C8823438C88234387
:10376000CC8823431843108210BD00210180418082
:103770008180C180704721B1828942F400528281E8
:1037800004E082894DF6FF731A4082817047F0B5DC
:103790000346002400260025002040F66A17B9429F
:1037A00000D100BF1846C1F3421401F01F060127E3
:1037B00007FA06F5012C01D10C3004E0022C01D1EE
:1037C000103000E014301AB107682F43076002E0A0
:1037D0000768AF430760F0BD1AB1838A0B43838249
:1037E00002E0838A8B4383827047028A4FF6F0732C
:1037F0001A400282028A0A430282704782894FF28B
:10380000FF731A40828182890A438281704721B105
:10381000828942F00202828104E082894FF6FD73C0
:103820001A4082817047028A4FF6DF731A40028283
:10383000028A0A430282704721B1028A42F480421E
:10384000028204E0028A4BF6FF731A40028270473C
:10385000C1F308028280704701468888C0F30800DF
:103860007047818941F0010181817047028BD2B29A
:103870000283028B42EA012202837047028B02F428
:103880007F420283028B0A430283704721B1828AFE
:1038900042F02002828204E0828A4FF6DF731A40EF
:1038A0008282704721B1828A42F01002828204E053
:1038B000828A4FF6EF731A408282704721B1828A62
:1038C00042F00802828204E0828A4FF6F7731A40BF
:1038D0008282704721B1828942F40042828103E0F2
:1038E0008289C2F30E028281704721B1828A42F43A
:1038F0000062828204E0828A4FF2FF731A40828261
:103900007047828A4FF6FB731A408282828A0A438A
:103910008282704721B1828A42F00202828204E0F0
:10392000828A4FF6FD731A40828270470246002059
:10393000B1F5007F00D100BF13880B400BB101200F
:1039400000E00020704701F40072B2F5007F00D162
:1039500000BFCA430280704770B5024600240023AE
:103960000025002040F66A16B14200D100BFC1F325
:10397000421501F01F03012606FA03F3012D02D1BF
:103980009689334006E0022D02D1168A334001E0C9
:10399000968A33400C12012606FA04F41688344045
:1039A00013B10CB1012000E0002070BD10B5002261
:1039B000002340F66A14A14200D100BF0A1201247C
:1039C0009440A3B2DC43048010BD000000380140E5
:1039D0000044004000480040004C004000500040BF
:1039E00070477047704770477047754600F028F879
:1039F000AE4605006946534620F00700854618B0DC
:103A000020B5FEF7DBFABDE820404FF000064FF08E
:103A100000074FF000084FF0000B21F00701AC4603
:103A2000ACE8C009ACE8C009ACE8C009ACE8C00922
:103A30008D4670470446AFF300802046FCF7BFFB7D
:103A40000048704758010020683A00080000002034
:103A5000600000006C010008C83A00086000002007
:103A60005807000088010008000000000000000066
:103A7000000C000100000000000000000000000039
:103A80000100000000A24A04000000000000000045
:103A900001020304060708090000000000000000FE
:103AA0000000000000000000000000000000000016
:103AB00000000000000001020304010203040607E5
:083AC0000809020406080000D9
:0400000508000131BD
:00000001FF
